:100000000C94E9310C9484610C9458610C942C612B
:100010000C9400610C94D4600C94A8600C941A3277
:100020000C941A320C941A320C941A320C941A3220
:100030000C941A320C947A5E0C941A320C941A3284
:100040000C941A320C941A320C941A320C941A3200
:100050000C941A320C941A320C941A320C943A5FA3
:100060000C941A320C94045F0C94DA5E0C941A32DD
:100070000C941A320C941A320C941A320C941A32D0
:100080000C941A320C941A320C941A320C941A32C0
:100090000C941A320C941A320C941A320C94845F19
:1000A0000C941A320C941A320C941A320C941A32A0
:1000B0000C941A320C941A320C941A320C941A3290
:1000C0000C941A320C941A320C941A320C941A3280
:1000D0000C941A320C941A320C941A320C941A3270
:1000E0000C941A32286D292D4D6163726F730028AC
:1000F00063292D436F6D6D616E6473002866292D31
:100100004C6973742F73686F77002873292D4C69BD
:1001100073742F73686F7700286B292D4C69737483
:100120002F616374002867292D4C6973742F6163F4
:1001300074007F206261636B00416B746F72732F78
:1001400053776974636865730054696D6572204DF7
:10015000656E756520706C616E00666163746F72A8
:10016000792052455345540054494D4520736574D8
:1001700074696E67730048583731312043616C6988
:100180006272617465004932432D7363616E2F732F
:10019000686F7700506172616D657465726C697328
:1001A00074007F206261636B00506172616D6574E1
:1001B000657220262054696D6500616C6C20726543
:1001C0007365740073686F77204572726F7227735E
:1001D000007F206261636B004572726F722773004B
:1001E0006964656E746966792053656E736F7273A6
:1001F00000434C45415220454550524F4D2021006F
:1002000052414D20746F20454550524F4D200045BE
:100210004550524F4D20746F2052414D007365611F
:100220007263682053656E736F72730073686F77C3
:100230002050696E2B416464722E0054656D7065A8
:10024000726174757265732073686F77007F2062C6
:1002500061636B0054656D7065726174757265736E
:100260000073637265656E736176657200496E66D0
:100270006F726D6174696F6E0054484520454E443D
:1002800020494E2054424C204953204845524500B5
:10029000000000000000000000000000000000005E
:1002A000000000000000000000000000000000004E
:1002B000000000000000000000000000000000003E
:1002C000000000000000000000000000000000002E
:1002D000000000000000000000000000000000001E
:1002E000000000000000000000000000000000000E
:1002F00000000000000000000000000000000000FE
:1003000000000000000000000000000000000000ED
:1003100000000000000000000000000000000000DD
:1003200000000000004C6565726265726569636873
:10033000206461204D6163726F2030206E757220E1
:100340007A7520446F6B757A7765636B656E20658F
:1003500078697374696572740000000000393900AF
:100360003100353030000031003000003200000034
:100370003939003100313030300030003100300088
:1003800072657365727665205F5F5F5F5F5F5F5F59
:100390005F5F5F5F5F5F5F5F5F5F5F3A006F7468C3
:1003A0006572204D6163726F73206D6179206E6F8D
:1003B000742072756E5F5F5F3A006F7468657220BB
:1003C0004D6163726F73206D7573742072756E5F0B
:1003D0005F5F5F5F5F3A0072756E204D6163726FA1
:1003E000206166746572206B696C6C5F5F5F5F5F34
:1003F0005F5F3A006B696C6C20706F737369626C3D
:10040000652074696C6C20737465705F5F5F5F3A20
:100410000072756E20706172616C6C656C20616C2D
:100420006C6F77656420436E745F5F5F3A0064654C
:100430006661756C742053746570205061757365C6
:100440005B6D735D5F5F5F5F5F3A004D6163726F0D
:1004500020696E74657276616C5B6D735D5F5F5F62
:100460005F5F5F5F5F5F3A004D6163726F2072652F
:10047000706561742074696D65735F5F5F5F5F5F56
:100480005F5F5F3A0064656C6179206265666F72D8
:10049000652073746172745B6D735D5F5F5F5F5F36
:1004A0003A00006D616368696E6520697320747538
:1004B000726E656420746F20612053544F50207316
:1004C000746174650073746F7070696E67206D611C
:1004D00063726F20646F6E650073746F7070696E05
:1004E0006720706C732077616974006D616368695F
:1004F0006E6520646F776E206D6163726F20646F2C
:100500006E65006D616368696E65207368757474EB
:10051000696E6720646F776E206E6F770073746FFB
:1005200070206D616368696E6500006D6163686964
:100530006E65206973207475726E656420746F2017
:1005400061207265616479207374617465007374ED
:10055000617274206D6163726F20646F6E650073E9
:1005600074617274696E6720706C7320776169744E
:10057000006D616368696E65207374617274206DCB
:100580006163726F20646F6E65006D616368696E90
:1005900065206973207374617274696E67206E6F71
:1005A00077007374617274206D616368696E6500B1
:1005B000726573657276655F5F5F5F5F5F5F5F5FE8
:1005C0005F5F5F5F5F5F5F5F5F5F5F3A00646573A0
:1005D0006372697074696F6E5F5F5F5F5F5F5F5FBB
:1005E0005F5F5F5F5F5F5F5F3A004C4344204D6534
:1005F0007373616765207768656E20646F6E655FF1
:100600005F5F5F5F5F3A004C4344204D65737361E9
:100610006765207768656E20737461727465645FC6
:100620005F5F3A0055415254204D657373616765B1
:10063000207768656E20646F6E655F5F5F5F5F3A0D
:100640000055415254204D6573736167652077688A
:10065000656E20737461727465645F5F3A004D610A
:1006600063726F2D4E616D655F5F5F5F5F5F5F5FA0
:100670005F5F5F5F5F5F5F5F5F3A000000000000E9
:10068000000000000000000000000000000000006A
:10069000000000000000000000000000000000005A
:1006A000000000000000000000000000000000004A
:1006B000000000000000000000000000000000003A
:1006C0000000006720312031206F646572206B20AC
:1006D000312031206F646572206D20312073746F7A
:1006E0007020006720312032206F646572206B20FB
:1006F000312032206F646572206D203120305F5FC1
:100700005F5F00313030305B6D735D5F5F5F5F5FF7
:10071000004F46462E2E4F4E202D56414C554553E8
:100720002030202033323030305F5F5F5F5F5F5FAB
:100730005F5F5F5F5F5F5F5F5F5F5F5F3A004F4E6E
:10074000207768656E2050494E2069732020303D27
:1007500047726F756E642020313D486967685F5F3E
:100760005F5F5F5F5F5F5F5F5F3A00303D415245B3
:1007700046204578742E20313D64656620323D3137
:100780002E315B565D20333D322E353620393D44C7
:1007900049474954414C3A0050554C4C5550203033
:1007A0003D4E4F2020313D5945535F5F5F5F5F5F96
:1007B0005F5F5F5F5F5F5F5F5F5F5F5F5F5F5F5F49
:1007C0005F5F5F3A0050696E5B302D36305D2C49BB
:1007D00032432D416464726573735B6465635D2CA1
:1007E0004269745B302D375D5F5F5F5F5F5F5F5FA6
:1007F0003A0000000000000000000000456E647335
:100800006368616C746572206265692064656D203F
:100810004465636B656C20646572204D6173636829
:10082000696E6500456E64736368616C74657220FF
:10083000310047617320447275636B73656E736F2B
:1008400072206C69656665727420616E616C6F6799
:10085000656E20576572740047617320447275633A
:100860006B20416E616C6F677765727400536368CB
:10087000616C746572204265736368726569627544
:100880006E6700536368616C746572204E616D65BC
:100890005F5F5F5F5F5F5F5F3A0000000000000026
:1008A00000000000737769746368206174207468C5
:1008B0006520746F70206F66206D616368696E6576
:1008C00000656E64737769746368203100676173D3
:1008D0002070726561737572652068617320612094
:1008E000616E616C6F672056616C756520746F2056
:1008F00061726475696E6F2050494E2000676173A4
:1009000020707265617375726520616E616C6F67CE
:100910000053776974636820446573637269707407
:10092000696F6E5F3A00537769746368204E616D3A
:10093000655F5F5F5F5F5F5F5F3A0031202020315E
:100940002020202032202031202020332020203160
:100950002020203420202031202020352020312C40
:1009600036203120202C203720312000312031202A
:1009700032203120332031203420312035203120E5
:100980003620312020372031200031203420200033
:1009900037202B352037202B203720202037202DC3
:1009A00032206737202B3132203620352020673621
:1009B000202B20352020673620202D20203130208C
:1009C000006737202B31302020202037202D332086
:1009D00037202B3520202037202D31202020372094
:1009E0002D32202037202B2020312000673120702D
:1009F000312C2000673120312C202020673220311B
:100A00002C673320312C202020673420312C67358F
:100A100020312C2020673620312C202020673720E1
:100A2000312000673120322C202020673220312CE9
:100A3000673320322C202020673420312C6735206A
:100A4000322C202067362033302C2020673720328C
:100A500020202000673120342C2020202000673106
:100A600020312C20673620312C2067372031006759
:100A70003120322C20673620312C2067372032007D
:100A8000673120352000673420312C206735203134
:100A900000673420322C2067352031006734203144
:100AA0002C206735203100673220312C206733201D
:100AB0003100673220322C2067332031006732202A
:100AC0003120206733203100673120310067312029
:100AD000322C20673220320000673120312067320B
:100AE00020312020202020202020202020202020F5
:100AF0002020202020202020205F5F5F5F5F5F5F3D
:100B00005F3A006D616368696E654E722056616C74
:100B100075652C206D616368696E654E7220566143
:100B20006C75652C5F5F5F5F5F5F5F3A006D61634F
:100B300068696E654E722056616C75652C206D611A
:100B40006368696E654E722056616C75652C5F5FD7
:100B50005F5F5F5F5F3A00000000000054657374E0
:100B600073657175656E7A20000053636877656EF2
:100B70006B6D6F746F722031207520322053544F8B
:100B800050000053636877656E6B6D6F746F7220F1
:100B90003120752032205269636874756E67204277
:100BA000000053636877656E6B6D6F746F722031F0
:100BB00020752032205269636874756E6720410089
:100BC00054657374646174656E206D697420506F30
:100BD0007765722D4C454400506F7765722D4C45FA
:100BE00044205465737420004B6F6D626920426528
:100BF00073636872656962756E673A004B6F6D6208
:100C000069204E616D655F5F5F5F5F5F5F5F3A00A8
:100C10000000000000000000000000002000200094
:100C2000436F6D62696E6174696F6E2044657363B2
:100C300072697074696F6E5F3A00436F6D62696EBE
:100C40006174696F6E204E616D655F5F5F5F5F5FAE
:100C50005F5F3A00300031006E20333520370030BE
:100C60000031006E203335203600300031006E2018
:100C70003335203500300031006E2033352034000C
:100C8000300031006E203335203320003000310039
:100C90006E203335203200300031006E2033352095
:100CA0003100300031006E2033352030003000310B
:100CB000006E203334203700300031006E20333492
:100CC000203600300031006E2033342035003000F3
:100CD00031006E203334203400300031006E203378
:100CE00034203300300031006E20333420320030A5
:100CF0000031006E203334203100300031006E208E
:100D00003334203000300031006E20333320370080
:100D1000300031006E203333203600300031006E59
:100D2000203333203500300031006E20333320343F
:100D300000300031006E20333320330030003100AA
:100D40006E203333203200300031006E20333320E8
:100D50003100300031006E2033332030003000315C
:100D6000006E203332203700300031006E203332E5
:100D7000203600300031006E203332203500300044
:100D800031006E203332203400300031006E2033C9
:100D900032203300300031006E20333220320030F8
:100DA0000031006E203332203100300031006E20DF
:100DB0003332203000300031003333003000310056
:100DC0003332003000310033310030003100333035
:100DD000003000310032390030003100323800304C
:100DE000003100323700300031003236003000313F
:100DF0000032350030003100333400300031003231
:100E00003300300031003232003100310031330024
:100E10004F4E207768656E2050494E206973202020
:100E2000303D47726F756E642020313D48696768B8
:100E30005F5F5F5F5F5F5F5F3A0061742050575292
:100E40002D4F4E20303D4E4320313D6F666620329F
:100E50003D4F4E20332E2E3235353D50574D5F5F7E
:100E60005F5F3A0050696E5B302D36305D2C493241
:100E7000432D416464726573735B6465635D2C42EA
:100E800069745B302D375D5F5F5F5F5F3A0052656D
:100E90006C61697320333220C3BC62657220504399
:100EA0004620506F7274657870616E64657200528E
:100EB000656C6169732033320052656C616973201F
:100EC000333120C3BC6265722050434620506F729C
:100ED00074657870616E6465720052656C616973E7
:100EE0002033310052656C61697320333020C3BCFC
:100EF0006265722050434620506F7274657870614D
:100F00006E6465720052656C616973203330005203
:100F1000656C61697320323920C3BC6265722050F0
:100F2000434620506F7274657870616E646572001C
:100F300052656C6169732032390052656C61697366
:100F400020323820C3BC6265722050434620506F67
:100F50007274657870616E6465720052656C616967
:100F6000732032380052656C61697320323720C3B8
:100F7000BC6265722050434620506F727465787071
:100F8000616E6465720052656C616973203237006E
:100F900052656C61697320323620C3BC6265722071
:100FA00050434620506F7274657870616E6465724C
:100FB0000052656C6169732032360052656C61695C
:100FC0007320323520C3BC626572205043462050E6
:100FD0006F7274657870616E6465720052656C61E1
:100FE00069732032350052656C6169732032342098
:100FF000C3BC6265722050434620506F727465789E
:1010000070616E6465720052656C61697320323480
:101010000052656C61697320323320C3BC62657213
:101020002050434620506F7274657870616E64651D
:10103000720052656C6169732032330052656C61D5
:10104000697320323220C3BC62657220504346204F
:10105000506F7274657870616E6465720052656C71
:101060006169732032320052656C616973203231DC
:1010700020C3BC6265722050434620506F72746575
:101080007870616E6465720052656C6169732032BC
:10109000310052656C61697320323020C3BC6265D7
:1010A000722050434620506F7274657870616E6490
:1010B00065720052656C6169732032300052656C54
:1010C00061697320313920C3BC6265722050434688
:1010D00020506F7274657870616E6465720052653D
:1010E0006C6169732031390052656C61697320311C
:1010F0003820C3BC6265722050434620506F727422
:10110000657870616E6465720052656C6169732008
:1011100031380052656C61697320313720C3BC627D
:1011200065722050434620506F7274657870616E0E
:101130006465720052656C616973203137005265D5
:101140006C61697320313620C3BC626572205043E4
:101150004620506F7274657870616E6465720052DB
:10116000656C6169732031360052656C616973206A
:10117000313520C3BC6265722050434620506F72E7
:1011800074657870616E6465720052656C61697334
:101190002031350052656C61697320313420C3BC45
:1011A0006265722050434620506F7274657870619A
:1011B0006E6465720052656C61697320313400524F
:1011C000656C61697320313320C3BC626572205045
:1011D000434620506F7274657870616E646572006A
:1011E00052656C6169732031330052656C616973BB
:1011F00020313220C3BC6265722050434620506FBC
:101200007274657870616E6465720052656C6169B4
:10121000732031320052656C61697320313120C313
:10122000BC6265722050434620506F7274657870BE
:10123000616E6465720052656C61697320313100C2
:1012400052656C61697320313020C3BC62657220C5
:1012500050434620506F7274657870616E64657299
:101260000052656C6169732031300052656C6169B0
:1012700073203920C3BC6265722050434620506FF2
:101280007274657870616E6465720052656C616934
:101290007320390052656C616973203820C3BC62C9
:1012A00065722050434620506F7274657870616E8D
:1012B0006465720052656C61697320380052656C18
:1012C000616973203720C3BC626572205043462099
:1012D000506F7274657870616E6465720052656CEF
:1012E00061697320370052656C616973203620C3D1
:1012F000BC6265722050434620506F7274657870EE
:10130000616E6465720052656C61697320360052CB
:10131000656C616973203520C3BC626572205043DF
:101320004620506F7274657870616E646572005209
:10133000656C61697320350052656C616973203496
:1013400020C3BC6265722050434620506F727465A2
:101350007870616E6465720052656C6169732034E7
:101360000052656C616973203320C3BC62657220D2
:1013700050434620506F7274657870616E64657278
:101380000052656C61697320330052656C6169734A
:10139000203220C3BC6265722050434620506F72D9
:1013A00074657870616E6465720052656C61697312
:1013B00020320052656C616973203120C3BC6265C4
:1013C000722050434620506F7274657870616E646D
:1013D00065720052656C6169732031004652454563
:1013E000204D6F736665740046524545204D6F73FE
:1013F000666574005353523420756E64203520C3E3
:10140000BC626572204D6F7366657400535352342D
:1014100020756E642035005353523220756E64205F
:101420003320C3BC626572204D6F736665740053D0
:1014300053523220756E642033005353523120C30F
:10144000BC626572204D6F736665740053535231F0
:1014500000537461747573204C4544203820616ECC
:10146000206465722046726F6E7420C3BC62657220
:10147000204D6F7366657400537461747573204CEE
:101480004544203800537461747573204C454420E2
:101490003720616E206465722046726F6E7420C3BF
:1014A000BC626572204D6F7366657400537461741D
:1014B0007573204C45442037005374617475732054
:1014C0004C4544203620616E206465722046726F60
:1014D0006E7420C3BC626572204D6F7366657400C4
:1014E000537461747573204C454420360053746105
:1014F000747573204C4544203520616E20646572FC
:101500002046726F6E7420C3BC626572204D6F738B
:1015100066657400537461747573204C45442035BE
:1015200000537461747573204C4544203420616EFF
:10153000206465722046726F6E7420C3BC6265724F
:10154000204D6F7366657400537461747573204C1D
:101550004544203400537461747573204C45442015
:101560003320616E206465722046726F6E7420C3F2
:10157000BC626572204D6F7366657400537461744C
:101580007573204C45442033005374617475732087
:101590004C4544203220616E206465722046726F93
:1015A0006E7420C3BC626572204D6F7366657400F3
:1015B000537461747573204C454420320053746138
:1015C000747573204C4544203120616E206465722F
:1015D0002046726F6E7420C3BC626572204D6F73BB
:1015E00066657400537461747573204C45442031F2
:1015F0000066657374206175662064656D20617294
:101600006475696E6F20426F6172642067656CC398
:10161000B674657465204C454400464958452061C0
:10162000726475696E6F204C4544004D6173636848
:10163000696E655F426573636872656962756E673E
:101640003A004D61736368696E655F4E616D655FF9
:101650005F5F5F5F5F5F5F3A0052656C6169732037
:101660003332206F7665722050434620506F72747B
:10167000657870616E6465720052656C6169732093
:1016800033320052656C616973203331206F7665A7
:10169000722050434620506F7274657870616E649A
:1016A00065720052656C6169732033310052656C5C
:1016B000616973203330206F766572205043462075
:1016C000506F7274657870616E6465720052656CFB
:1016D0006169732033300052656C6169732032395F
:1016E000206F7665722050434620506F7274657883
:1016F00070616E6465720052656C61697320323985
:101700000052656C616973203238206F76657220F3
:1017100050434620506F7274657870616E646572D4
:101720000052656C6169732032380052656C6169E2
:1017300073203237206F7665722050434620506FF9
:101740007274657870616E6465720052656C61696F
:10175000732032370052656C616973203236206F16
:101760007665722050434620506F727465787061C0
:101770006E6465720052656C616973203236005286
:10178000656C616973203235206F76657220504335
:101790004620506F7274657870616E646572005295
:1017A000656C6169732032350052656C6169732024
:1017B0003234206F7665722050434620506F727429
:1017C000657870616E6465720052656C6169732042
:1017D00032340052656C616973203233206F766554
:1017E000722050434620506F7274657870616E6449
:1017F00065720052656C6169732032330052656C0A
:10180000616973203232206F766572205043462022
:10181000506F7274657870616E6465720052656CA9
:101820006169732032320052656C61697320323114
:10183000206F7665722050434620506F7274657831
:1018400070616E6465720052656C6169732032313B
:101850000052656C616973203230206F76657220AA
:1018600050434620506F7274657870616E64657283
:101870000052656C6169732032300052656C616999
:1018800073203139206F7665722050434620506FA7
:101890007274657870616E6465720052656C61691E
:1018A000732031390052656C616973203138206FC3
:1018B0007665722050434620506F7274657870616F
:1018C0006E6465720052656C616973203138005234
:1018D000656C616973203137206F766572205043E3
:1018E0004620506F7274657870616E646572005244
:1018F000656C6169732031370052656C61697320D2
:101900003136206F7665722050434620506F7274D6
:10191000657870616E6465720052656C61697320F0
:1019200031360052656C616973203135206F766500
:10193000722050434620506F7274657870616E64F7
:1019400065720052656C6169732031350052656CB7
:10195000616973203134206F7665722050434620D0
:10196000506F7274657870616E6465720052656C58
:101970006169732031340052656C616973203133C1
:10198000206F7665722050434620506F72746578E0
:1019900070616E6465720052656C616973203133E9
:1019A0000052656C616973203132206F7665722058
:1019B00050434620506F7274657870616E64657232
:1019C0000052656C6169732031320052656C616947
:1019D00073203131206F7665722050434620506F5E
:1019E0007274657870616E6465720052656C6169CD
:1019F000732031310052656C616973203130206F82
:101A00007665722050434620506F7274657870611D
:101A10006E6465720052656C6169732031300052EA
:101A2000656C6169732039206F766572205043467A
:101A300020506F7274657870616E646572005265D3
:101A40006C61697320390052656C616973203820BC
:101A50006F7665722050434620506F7274657870BF
:101A6000616E6465720052656C6169732038005262
:101A7000656C6169732037206F766572205043462C
:101A800020506F7274657870616E64657200526583
:101A90006C61697320370052656C61697320362070
:101AA0006F7665722050434620506F72746578706F
:101AB000616E6465720052656C6169732036005214
:101AC000656C6169732035206F76657220504346DE
:101AD00020506F7274657870616E64657200526533
:101AE0006C61697320350052656C61697320342024
:101AF0006F7665722050434620506F72746578701F
:101B0000616E6465720052656C61697320340052C5
:101B1000656C6169732033206F766572205043468F
:101B200020506F7274657870616E646572005265E2
:101B30006C61697320330052656C616973203220D7
:101B40006F7665722050434620506F7274657870CE
:101B5000616E6465720052656C6169732032005277
:101B6000656C6169732031206F7665722050434641
:101B700020506F7274657870616E64657200526592
:101B80006C61697320310046524545204D6F736684
:101B900065740046524545204D6F73666574005369
:101BA00053523420616E642035206F766572206F49
:101BB0006E65204D6F736665740053535234206117
:101BC0006E642035005353523220616E64203320FE
:101BD0006F766572206F6E65204D6F736665740059
:101BE0005353523220616E642033005353523120DC
:101BF0006F766572204D6F73666574005353523172
:101C000000537461747573204C45442038206F6E06
:101C1000207468652046726F6E74206F766572203E
:101C20004D6F7366657400537461747573204C4511
:101C300044203800537461747573204C4544203738
:101C4000206F6E207468652046726F6E74206F7608
:101C50006572204D6F73666574005374617475739B
:101C6000204C4544203700537461747573204C45F3
:101C7000442036206F6E207468652046726F6E7443
:101C8000206F766572204D6F7366657400537461C2
:101C9000747573204C454420360053746174757319
:101CA000204C45442035206F6E20746865204672B4
:101CB0006F6E74206F766572204D6F736665740069
:101CC000537461747573204C45442035005374611E
:101CD000747573204C45442034206F6E2074686501
:101CE0002046726F6E74206F766572204D6F73663A
:101CF000657400537461747573204C45442034003E
:101D0000537461747573204C45442033206F6E20EA
:101D10007468652046726F6E74206F766572204D10
:101D20006F7366657400537461747573204C454419
:101D3000203300537461747573204C454420322065
:101D40006F6E207468652046726F6E74206F7665C2
:101D500072204D6F736665740053746174757320DF
:101D60004C4544203200537461747573204C4544D3
:101D70002031206F6E207468652046726F6E74206B
:101D80006F766572204D6F7366657400537461746D
:101D90007573204C45442031004C454420666978D9
:101DA000206D6F756E746564206F6E207468652099
:101DB00061726475696E6F206D656761004F4E4298
:101DC0004F415244204C4544004D616368696E6543
:101DD0005F4465736372697074696F6E5F3A004D3A
:101DE000616368696E655F4E616D655F5F5F5F5FD0
:101DF0005F5F5F3A005B2E5D00003100300039000C
:101E000031003632005B2E5D0000310030003900B9
:101E100031006E2033362037005B2E5D000031002C
:101E20003000390031006E2033362036005B2E5DE5
:101E3000000031003000390031006E20333620358B
:101E4000005B2E5D000031003000390031006E2053
:101E500033362034005B2E5D000031003000390045
:101E600031006E2033362033005B2E5D00003100E0
:101E70003000390031006E2033362032005B2E5D99
:101E8000000031003000390031006E20333620313F
:101E9000005B2E5D000031003000390031006E2003
:101EA000333620300045696E68656974204273706E
:101EB0003A5B6D565D007265730043616C6320464A
:101EC0006F726D756C61004F4E207768656E2050A3
:101ED000494E20697320303D47726F756E64202033
:101EE000313D4869676820322E2E3130323300414F
:101EF00052454620313D44656661756C7420323D23
:101F0000312E315B565D20333D322E35365B565DCA
:101F100020303D415245462045787420393D4449A2
:101F2000474954414C006174205057522D4F4E2068
:101F3000303D69676E6F726520313D494E50555492
:101F40005F50554C4C555020323D494E5055540031
:101F500050696E5B302D36305D2C4932432D416423
:101F600064726573735B6465635D2C4269745B3096
:101F70002D375D005768656E204D6F746F72736109
:101F800066652069732066616C6C656E004D6F74C8
:101F90006F72736166650073776974636865732037
:101FA0006D616368696E652038206F6E00507573CF
:101FB0006820427574746F6E20380073776974639B
:101FC000686573206D616368696E652037206F6E88
:101FD000005075736820427574746F6E20370073FB
:101FE00077697463686573206D616368696E6520E5
:101FF00036206F6E005075736820427574746F6E72
:102000002036007377697463686573206D61636857
:10201000696E652035206F6E0050757368204275BB
:1020200074746F6E2035007377697463686573200C
:102030006D616368696E652034206F6E0050757342
:102040006820427574746F6E20340073776974630E
:10205000686573206D616368696E652033206F6EFB
:10206000005075736820427574746F6E203300736E
:1020700077697463686573206D616368696E652054
:1020800032206F6E005075736820427574746F6EE5
:102090002032007377697463686573206D616368CB
:1020A000696E652031206F6E2F6F66660050757304
:1020B0006820427574746F6E203100496E707574BB
:1020C0002F53776974636820446573637269707411
:1020D000696F6E00496E7075742F53776974636809
:1020E000204E616D650033004572726F722D436141
:1020F0007465676F7279004572723A203031204BF7
:102100006F6D70726573736F722054656D70657258
:1021100061747572207A7520686F636820736965D1
:10212000686520506172616D6574657220787820F1
:1021300066C3BC722065762E2045696E7374656C2B
:102140006C756E67736B6F7272656B747572656EAA
:10215000004B6F6D70726573736F72207A752068B3
:1021600065697373004B6F6D70726573736F722066
:10217000C3BC6265726869747A74004B6F6D70726B
:102180002E54656D7000554152542D54657874205D
:1021900077656E6E204665686C6572206175667441
:1021A00072697474004C43442D54657874207765CB
:1021B0006E6E20646572204665686C65722061757C
:1021C000667472697474004665686C65722D426548
:1021D00073636872656962756E67004665686C65F1
:1021E000722D4E616D65004572723A203031204388
:1021F0006F6D70726573736F722054656D70657268
:10220000617475726520746F204869676800436F58
:102210006D70722E54656D70204F56455248454181
:102220005400436F6D70726573736F722074656DC7
:102230007065726174757220746F206869676800D8
:10224000436F6D70722054656D7000554152542D6E
:1022500054657874207768656E204572726F7220BD
:10226000617269736573004C43442D546578742022
:102270007768656E204572726F722061726973654E
:1022800073004572726F722D446573637269707466
:10229000696F6E004572726F722D4E616D650064DC
:1022A0006566006D6178006D696E005B205D00649D
:1022B0006566006D6178006D696E005B205D00648D
:1022C0006566006D6178006D696E005B205D00647D
:1022D0006566006D6178006D696E005B205D00646D
:1022E0006566006D6178006D696E005B205D00645D
:1022F0006566006D6178006D696E005B205D00644D
:102300006566006D6178006D696E005B205D00643C
:102310006566006D6178006D696E005B205D00642C
:102320006566006D6178006D696E005B205D00641C
:102330006566006D6178006D696E005B205D00640C
:102340006566006D6178006D696E005B205D0064FC
:102350006566006D6178006D696E005B205D00321E
:1023600030303000313030303000353030005B6795
:102370005D003000310030005B302F315D003100F6
:10238000310030005B302F315D0030003100300013
:102390005B302F315D003100320031005B312F3274
:1023A0005D003100310030005B302F315D003100C5
:1023B000320030005B4E725D003100310030005B56
:1023C000302F315D00666163746F72797365743AA2
:1023D0005F5F5F5F5F006D6178696D756D3A5F5F2C
:1023E0005F5F5F5F5F5F006D696E696D756D3A5F1E
:1023F0005F5F5F5F5F5F5F00756E6974793A5F5F13
:102400005F5F5F5F5F5F5F5F0000000000000000D4
:1024100000000000000000000000000000000000BC
:1024200000000000000000000000006B65696E65A0
:102430002041686E756E6737006B65696E65204177
:10244000686E756E6736006B65696E652041686EF3
:10245000756E6735006B65696E652041686E756ED7
:102460006734006B65696E652041686E756E673311
:10247000006B65696E652041686E756E6732004657
:1024800072204465736372697074696F6E3A5F5F3E
:102490005F3A00467220506172616D657465726EBC
:1024A000616D655F5F3A0000000000000000000001
:1024B00000000000000000000000000000000062BA
:1024C000656B616E6E7465732047657769636874C8
:1024D00020696E204772616D6D2066C3BC722064F6
:1024E0006965204B616C696272696572756E6720FF
:1024F000766F6E2048583731312057696567656DB2
:102500006F64756C656E004B616C696272696572AF
:10251000756E677367657769636874004465746195
:10252000696C6C6965727465204D656C64756E6765
:10253000656E206265696D20424F4F54454E203FC5
:1025400020302F31004D6C646720424F4F5420647F
:10255000657461696C7300417573676162652064BD
:102560006572204D656C64756E67656E206D69746B
:1025700020646572656E204D656C64756E67736E60
:10258000756D6D6572207A7520426567696E6E2083
:10259000302F31004D656C64756E67206D69742055
:1025A0004E756D6D657200416D204D656E75652DC2
:1025B000456E6465206175746F6D617469736368DD
:1025C000207A756D204D656E7565616E66616E670A
:1025D00020737072696E67656E203F20302F310066
:1025E0004C4344204D656E7565726F6C6C6F7665FB
:1025F00072004C43442048696E7465726772756E50
:102600006462656C6575636874756E67206E61637E
:10261000682064656D20426F6F74766F7267616EBB
:1026200067203F20312F32004C4344204261636BCE
:102630006C2E6E61636820424F4F54004D656C6490
:10264000756E6720616E20646965205365726965E7
:102650006C6C652077656E6E20426F6F74766F725A
:1026600067616E6720616267657363686C6F73731F
:10267000656E206973742E004D6C646720424F4F65
:102680005420646F6E6500496E2077656C636865E1
:1026900072205370726163686520736F6C6C656E35
:1026A0002064696520417573676162656E2065729B
:1026B000666F6C67656E2E005370726163686500AB
:1026C000536F6C6C2061726475696E6F2065696E02
:1026D00065204D656C64756E67207A757220536550
:1026E0007269656C6C656E2073656E64656E2062E0
:1026F00065696D20626F6F74656E203F20302F31E9
:10270000004D6C646720424F4F5420616E2055414C
:10271000525400426573636872656962756E673A08
:102720005F5F5F5F5F3A00506172616D65746572F3
:102730002D4E616D655F5F5F5F3A00000000000035
:102740000000000000000000000000000000000089
:1027500000000057656967687420666F72205765CE
:10276000696768742D4D6F64756C2043616C696294
:10277000726174696F6E205B675D0043616C6962B2
:10278000726174696F6E205765696768740073655C
:102790006E6420424F4F542044657461696C73200D
:1027A000746F2055415254203F20302F31004D731B
:1027B0006720424F4F542064657461696C73005008
:1027C00072696E742065616368204D65737361671B
:1027D00065207769746820697473204E756D626531
:1027E000722061742074686520626567696E6E6925
:1027F0006E6720302F31004D6573736167652077F8
:10280000697468204E72007475726E204F4E207489
:102810006865204C4344204D656E75652D726F6C64
:102820006C6F766572203F20302F31004C4344207E
:102830004D6E75526F6C6C6F766572007475726E4A
:10284000204F4E20746865204C4344204261636BE6
:102850006C6967687420616674657220424F4F54DA
:10286000203F20312F32004C4344204261636B6C87
:102870002E6F6E20424F4F540073656E64206120AE
:102880006D65737361676520746F205541525420E4
:102890007768656E20626F6F7420697320646F6E55
:1028A000652E004D736720424F4F5420646F6E6554
:1028B0002055415254007769746368204C616E67FB
:1028C0007561676520666F72207468652055736551
:1028D00072696E746572666163652E00736574203B
:1028E0004C616E67756167650073686F756C642015
:1028F00061726475696E6F2073656E642061204D2E
:1029000065737361676520746F2074686520554135
:102910005254207768656E20626F6F74696E67200D
:102920003F20302F31004D736720424F4F542074A9
:102930006F20554152540044657363726970746925
:102940006F6E3A5F5F5F5F5F5F3A00506172616D0B
:10295000657465722D4E616D655F5F5F5F3A00441F
:10296000657A004E6F76004F6B74005365700041BE
:102970007567004A756C004A756E004D61690041CB
:102980007072004D616500466562004A616E004CE0
:102990006565726D00446563004E6F76004F637429
:1029A0000053657000417567004A756C004A756E8A
:1029B000004D617900417072004D617200466562A0
:1029C000004A616E00656D700044657A656D6265F0
:1029D00072004E6F76656D626572004F6B746F6248
:1029E00065720053657074656D626572004175674C
:1029F000757374004A756C69004A756E69004D61A3
:102A00006900417072696C004D6165727A004665BB
:102A10006272756172004A616E756172004C656523
:102A2000726D6F6E617400446563656D62657200FE
:102A30004E6F76656D626572004F63746F6265728A
:102A40000053657074656D626572004175677573DA
:102A500074004A756C79004A756E65004D617900A5
:102A6000417072696C004D61726368004665627204
:102A700075617279004A616E7561727900656D7079
:102A800074796D6F6E74680053616D0046726500F5
:102A9000446F6E004D697400446965004D6F6E00AF
:102AA000536F6E007361740066726900746875001C
:102AB00077656400747565006D6F6E0073756E00E8
:102AC00053616D7374616700467265697461670074
:102AD000446F6E6E657273746167004D69747477CC
:102AE0006F6368004469656E73746167004D6F6E53
:102AF00074616700536F6E6E746167005361747523
:102B00007264617900467269646179005468757213
:102B100073646179005765646E657364617900540C
:102B2000756573646179004D6F6E646179005375EA
:102B30006E64617900636F756E74005B636E745DC3
:102B4000007069656365005B7063735D0047726167
:102B5000642043656C73697573005BDF5D43006DD2
:102B6000696C6C69626172006D6261720053656BC1
:102B7000756E64656E005B735D006D696C6C6920D9
:102B8000736563005B6D735D004C69746572005B17
:102B90004C5D006D696C6C69005B6D6C5D006B6910
:102BA0006C6F005B6B675D006772616D005B675DFA
:102BB000003174322C2032002070332C203200750A
:102BC00031362C2033007531362C203300753132EC
:102BD0002C2033006B20342C2033006B20332C202E
:102BE00033006B20332C2033003174362C2032001C
:102BF0003174362C2032003174322C203200207097
:102C0000332C2032007531362C2033007531362CB0
:102C10002033007531322C2033006B20342C2033CC
:102C2000006B20332C2033006B20332C20330031F9
:102C300074362C2032003174362C2032003174323C
:102C40002C2032002070332C203200206F332C20B7
:102C50003200206A332C2032003164372C203100BE
:102C60003164362C2031003164322C203100203286
:102C7000642C2031002036632C2031002034622C5B
:102C80002031007631342C2030007631362C203043
:102C9000007631312C20300020352C20633000208C
:102CA000342C2062300020342C2061300031362C4E
:102CB00020330031362C20330031322C20330020D9
:102CC000342C20330020332C20330020332C2033AD
:102CD0000031362C20320031362C20320031322C9B
:102CE00020320020332C20320020332C20320020D0
:102CF000332C20320031372C20310031362C20315A
:102D00000031322C20310020322C20310020362C92
:102D100020310020342C20310031342C203000317F
:102D2000362C20300031312C20300020352C203042
:102D30000020342C20300020332C2030004443412C
:102D40003A2E6B2E206C696D6974653A2E2E2E20FA
:102D50000048323A2E762E2E206C696D6974653AE1
:102D60002E2E2E2E00763A2E2E2E2064C3A9636FAF
:102D700075766572743A2E2E2E004F4F4F4E3A2EB6
:102D800020504F4F4E723A2E2E2E202020005354AA
:102D9000523A2E2E2E206C6C6C6C3A2E2E2E2E2E2D
:102DA0002E0048323A2E2E2E2E206C696D697465E5
:102DB0003A2E2E2E2E00703A2E2E2E2064C3A9639A
:102DC0006F75766572743A2E2E2E0049534F4E3A27
:102DD0002E2050574D4E723A2E2E2E202020004489
:102DE00043413A2E6B2E204772656E7A653A2E2E3D
:102DF0002E200048323A2E762E2E204772656E7AAB
:102E0000653A2E2E2E2E00787275636B3A2E2E2E7A
:102E100020736F6C6C3A2E2E2E200043434E3A2EB8
:102E20002020506363635353523A2E2E2E200044C9
:102E300043413A2E2E2E204772656E7A653A2E2E29
:102E40002E200048323A2E2E2E2E204772656E7AA2
:102E5000653A2E2E2E2E00647275636B3A2E2E2E3E
:102E600020736F6C6C3A2E2E2E200045494E3A2E60
:102E7000202050574D2D5353523A2E2E2E200044D1
:102E800043413A2E6B2E206D61783A2E2E2E202053
:102E900020200048323A2E762E20206D61783A2E7E
:102EA0002E2E2E202020006673693A2E2E2E20739F
:102EB00065743A2E2E2E2020202000424F4E3A2EAE
:102EC00020204242523A2E2E2E2020202020004444
:102ED00043413A2E2E2E206D61783A2E2E2E202040
:102EE00020200048323A2E2E2E2E206D61783A2E68
:102EF0002E2E2E202020007073693A2E2E2E207345
:102F000065743A2E2E2E20202020004F4E3A2E207F
:102F100020205353523A2E2E2E20202020200041D4
:102F20006472657373652066C3BC722053656E73EB
:102F30006F72203331003130004164726573736504
:102F40002066C3BC722053656E736F7220333000ED
:102F5000313000416472657373652066C3BC7220B2
:102F600053656E736F7220323900313000416472E4
:102F7000657373652066C3BC722053656E736F7290
:102F80002032380031300041647265737365206609
:102F9000C3BC722053656E736F72203237003130BC
:102FA0000032382046462033462042322036352033
:102FB0003138203320444400313000323820464636
:102FC000204530204242203635203138203320370A
:102FD000460031300032382046462046392036320D
:102FE000203630203138203220390031300032385C
:102FF00020464620373520423620363520313820CD
:1030000033203837003130003238204646203839F6
:1030100020424120363520313820332031320031F2
:1030200030003238204646203338204236203635AC
:1030300020313820332038320031300032382046F9
:103040004620372034332036302031382032204695
:1030500032003130003238204646204437203233A7
:1030600020363620313820332042330031300032D0
:103070003820464620353420373420363020313849
:103080002032204537003130003238204646203685
:103090003720364420363020313820322038360070
:1030A000313000323820464620364420373320362F
:1030B0003020313820322031360031300032382093
:1030C00046462039392041442036352031382033D6
:1030D000204430003130003238204646204533202D
:1030E0003844203637203138203120383300313011
:1030F00000323820464620433420434420363720CF
:1031000031382031204341003130003238204646EA
:1031100020444420393120363720313820312038BE
:1031200046003130003238204646204132204439B2
:10313000203637203138203120373100313000320D
:103140003820464620443120423820363720313856
:1031500020312034440031300032382046462044AB
:10316000442034442036302031382032203400319D
:103170003000323820464620362036342036302083
:103180003138203220433900313000323820464671
:103190002035342037412036302031382032204647
:1031A0003200313000323820464620433920424236
:1031B000203635203138203320373400313000328A
:1031C00038204646203720424120363520313820ED
:1031D0003320374200313000323820464620324317
:1031E0002042422036372031382031203846003105
:1031F00030003238204646204433203730203630E5
:103200002031382032203733003130003238204628
:1032100046204430204342203637203138203120A8
:1032200041300031300032382046462036302037D9
:1032300034203630203138203220374300313000FE
:10324000426573636872656962656E2046C3BC68D7
:103250006C657220333100445331382033310042E1
:103260006573636872656962656E2046C3BC686C8D
:1032700065722033300044533138203330004265CA
:1032800073636872656962656E2046C3BC686C656D
:10329000722032390044533138203239004265738C
:1032A000636872656962656E2046C3BC686C65724E
:1032B000203238004453313820323800426573637D
:1032C0006872656962656E2046C3BC686C65722071
:1032D0003237004453313820323700426573636817
:1032E00072656962656E2046C3BC686C6572203287
:1032F00036004453313820323600426573636872B9
:10330000656962656E2046C3BC686C6572203235A3
:10331000004453313820323500426573636872656A
:103320006962656E2046C3BC686C657220323400E9
:1033300044533138203234004265736368726569E2
:1033400062656E2046C3BC686C65722032330044EF
:1033500053313820323300426573636872656962A5
:10336000656E2046C3BC686C6572203232004453DF
:103370003138203232004265736368726569626574
:103380006E2046C3BC686C657220323100445331F4
:103390003820323100426573636872656962656E18
:1033A0002046C3BC686C657220323000445331380B
:1033B00020323000426573636872656962656E2011
:1033C00046C3BC686C6572203139004453313820E3
:1033D000313900426573636872656962656E2046C3
:1033E000C3BC686C657220313800445331382031D9
:1033F0003800426573636872656962656E2046C312
:10340000BC686C6572203137004453313820313745
:1034100000426573636872656962656E2046C3BC6D
:10342000686C6572203136004453313820313600E3
:10343000426573636872656962656E2046C3BC68E5
:103440006C657220313500445331382031350042EB
:103450006573636872656962656E2046C3BC686C9B
:1034600065722031340044533138203134004265D4
:1034700073636872656962656E2046C3BC686C657B
:1034800072203133004453313820313300426573A8
:10349000636872656962656E2046C3BC686C65725C
:1034A0002031320044533138203132004265736399
:1034B0006872656962656E2046C3BC686C6572207F
:1034C0003131004453313820313100426573636833
:1034D00072656962656E2046C3BC686C6572203196
:1034E00030004453313820313000426573636872D4
:1034F000656962656E2046C3BC686C6572203900E0
:10350000445331382030390042657363687265690D
:1035100062656E2046C3BC686C65722038004453F7
:1035200031382030380042657363687265696265BE
:103530006E2046C3BC686C65722037004453313836
:1035400020303700426573636872656962656E207A
:1035500046C3BC686C657220360044533138203055
:103560003600426573636872656962656E2046C3A2
:10357000BC686C657220350044533138203035000A
:10358000426573636872656962656E2046C3BC6894
:103590006C65722034004453313820303400426569
:1035A00073636872656962656E2046C3BC686C654A
:1035B0007220330044533138203033004265736346
:1035C0006872656962656E2046C3BC686C6572206E
:1035D00032004453313820303200426573636872E0
:1035E000656962656E2046C3BC686C6572203100F7
:1035F00044533138203031006465736372697074EC
:10360000696F6E2073656E736F722033310044539F
:103610003138203331006465736372697074696F87
:103620006E2073656E736F722033300044533138EF
:10363000203330006465736372697074696F6E2043
:1036400073656E736F722032390044533138203203
:1036500039006465736372697074696F6E20736595
:103660006E736F7220323800445331382032380084
:103670006465736372697074696F6E2073656E73CD
:103680006F7220323700445331382032370064657E
:10369000736372697074696F6E2073656E736F7295
:1036A000203236004453313820323600646573636B
:1036B00072697074696F6E2073656E736F722032F9
:1036C00035004453313820323500646573637269C4
:1036D0007074696F6E2073656E736F722032340080
:1036E00044533138203234006465736372697074F6
:1036F000696F6E2073656E736F72203233004453AE
:103700003138203233006465736372697074696F95
:103710006E2073656E736F722032320044533138FD
:10372000203232006465736372697074696F6E2051
:1037300073656E736F72203231004453313820321A
:1037400031006465736372697074696F6E207365AC
:103750006E736F72203230004453313820323000A3
:103760006465736372697074696F6E2073656E73DC
:103770006F7220313900445331382031390064658B
:10378000736372697074696F6E2073656E736F72A4
:103790002031380044533138203138006465736378
:1037A00072697074696F6E2073656E736F72203109
:1037B00037004453313820313700646573637269D0
:1037C0007074696F6E2073656E736F72203136008E
:1037D0004453313820313600646573637269707404
:1037E000696F6E2073656E736F72203135004453BC
:1037F0003138203135006465736372697074696FA4
:103800006E2073656E736F7220313400445331380B
:10381000203134006465736372697074696F6E205F
:1038200073656E736F722031330044533138203129
:1038300033006465736372697074696F6E207365B9
:103840006E736F72203132004453313820313200B0
:103850006465736372697074696F6E2073656E73EB
:103860006F722031310044533138203131006465AA
:10387000736372697074696F6E2073656E736F72B3
:103880002031300044533138203130006465736397
:1038900072697074696F6E2073656E736F72203910
:1038A00000445331382030390064657363726970A5
:1038B00074696F6E2073656E736F722038004453A5
:1038C0003138203038006465736372697074696FD1
:1038D0006E2073656E736F72203700445331382049
:1038E0003037006465736372697074696F6E20733A
:1038F000656E736F722036004453313820303600C5
:103900006465736372697074696F6E2073656E733A
:103910006F722035004453313820303500646573B0
:103920006372697074696F6E2073656E736F722055
:103930003400445331382030340064657363726955
:103940007074696F6E2073656E736F7220330044FC
:103950005331382030330064657363726970746961
:103960006F6E2073656E736F72203200445331386E
:10397000203032006465736372697074696F6E2001
:1039800073656E736F7220310044533138203031CB
:1039900000503400503300503200503100686173E1
:1039A000202020506172616D6574657200200032C4
:1039B0003320000000503220303D41736B20203115
:1039C0003D4C6574204F46462020323D4C657420A6
:1039D0004F4E2020333D616C6C20286729204F46D4
:1039E000462020343D616C6C20286729204F4E20F2
:1039F00020353D616C6C204F4E20696E7665727487
:103A00006564003220506172616D657465720053A7
:103A100065742F41736B2073696E6765206B2D622F
:103A2000697420696E206B2D425954452D41727284
:103A30006179003232204C65742F41736B206B2DFD
:103A4000496E64696361746F7220425954452D4117
:103A500072726179206D616E75616C6C7900000025
:103A6000503220303D41736B2020313D4C65742035
:103A70004F46462020323D4C6574204F4E00503159
:103A8000206B2D4E7220312E2E6B6D61780032200E
:103A9000506172616D657465722072657475726EC5
:103AA0007320313D4F46462020323D4F4E00536536
:103AB000742F41736B2073696E6765206B2D62698B
:103AC0007420696E206B2D6269742D417272617968
:103AD000003231204C65742F41736B206B2D496E81
:103AE00064696361746F722042697420417272610B
:103AF00079206D616E75616C6C7900000050322028
:103B0000303D41736B2020313D4C6574204F46465B
:103B10002020323D4C6574204F4E2020332E2E3213
:103B20003535204C65742050574D00503120672D9D
:103B30004E756D62657220312E2E2E676D61782074
:103B4000003220506172616D657465722072657417
:103B500075726E7320313D4F46462020323D4F4EE8
:103B60002020332E2E3235352050574D007365748A
:103B70002F41736B2073696E676520672D4259541E
:103B80004520696E20672D425954452D417272615E
:103B900079003230204C65742F41736B20672D49BA
:103BA0006E64696361746F7220425954452D41728D
:103BB000726179206D616E75616C6C7900000050E6
:103BC0003220303D41736B2020313D4C6574204FD5
:103BD00046462020323D4C6574204F4E0050312027
:103BE000672D4E756D62657220312E2E2E676D61C8
:103BF0007820003220506172616D657465722072A8
:103C0000657475726E732031203D4F464620203218
:103C1000203D4F4E007365742F41736B2073696EA6
:103C2000676520672D42697420696E20672D42699F
:103C3000742D4172726179003139204C65742F41C5
:103C4000736B20672D496E64696361746F722042E3
:103C500069742D4172726179206D616E75616C6C51
:103C60007900005033204E6577204269742D5661EB
:103C70006C756520313D4C6F7720323D484947488F
:103C800000503220303D41736B2020313D4C657433
:103C9000005031204269742D4E7220312E2E382072
:103CA000003320506172616D6574657220726574B5
:103CB00075726E732031203D4C4F572032203D48A5
:103CC000494748005365742F41736B2073696E67D1
:103CD0006C652042495420696E20496E64696361B5
:103CE000746F722D4269742D4172726179200031B6
:103CF00038204C65742F41736B20496E6469636191
:103D0000746F72204269742D4172726179206D6105
:103D10006E75616C6C792000503400503300503265
:103D200000503100202020506172616D6574657211
:103D30000020003137206572726F722072657365E2
:103D4000727665005034005033005032005031001C
:103D5000202020506172616D657465720020003111
:103D600036206572726F72207265736572766500B7
:103D7000000050322053656374696F6E20313D75C9
:103D80006E636F6E6669726D656420323D746F7428
:103D9000616C287265616465642920333D626F74CB
:103DA000682020343D626F7468202B2054696D6553
:103DB0007374616D70205A45524F00503120457226
:103DC000726F722D4E756D62657220303D414C4CA4
:103DD000003220506172616D657465720052455306
:103DE000455420436F756E746572312C20436F7596
:103DF0006E74657232206F722054696D6520446163
:103E0000746120696E2074686520454550524F4D9D
:103E10002053656374696F6E204572726F722D4C0A
:103E20006F6720003135205245534554204572724A
:103E30002D4E7220303D414C4C204F6363757272A1
:103E4000656E6365204572726F722D4C4F4700009E
:103E50000050322053656374696F6E20313D756E7A
:103E6000636F6E6669726D656420323D746F746154
:103E70006C287265616465642920333D6C617374DC
:103E80002054696D657374616D7020005031204558
:103E900072726F722D4E756D626572200032205005
:103EA0006172616D6574657200526561647320436F
:103EB0006F756E746572732066726F6D20746865BD
:103EC00020454550524F4D2053656374696F6E20F5
:103ED0004572726F722D4C6F67200031342052652D
:103EE0006164204F6363757272656E6365206F72E3
:103EF0002054696D657374616D702066726F6D20FA
:103F00004572726F722D4C4F4700000050322053A3
:103F1000656374696F6E20313D756E636F6E66699F
:103F2000726D656420323D746F74616C28726561D6
:103F30006465642920005031204572726F722D4EE5
:103F4000756D62657220003220506172616D65741A
:103F500065720057726974657320446174612074DE
:103F60006F2074686520454550524F4D205365635E
:103F700074696F6E204572726F722D4C6F672000EE
:103F80003133204164642031204F63637572726560
:103F90006E636520746F204572726F722D4C4F47AF
:103FA0000000005032005031002020506172616DDD
:103FB0006574657200003132206D6163726F20722A
:103FC000657365727665000000503220544F2020E2
:103FD000204D6163726F2D4E756D626572005031B8
:103FE0002046524F4D204D6163726F2D4E756D62AC
:103FF0006572003220506172616D65746572007384
:10400000746F7073206F6E65206F72206D6F7265B4
:104010002072756E6E696E67204D6163726F2F73CB
:10402000206174206E65787420537465700031319E
:10403000204B696C6C206F6E65206F722046524F6A
:104040004D202D20544F2072756E6E696E67204D85
:104050006163726F2F730000503320537461747565
:10406000732D4E756D62657220303D4F4B2C2031A3
:104070002E2E2E3320617420576F726B0050322029
:10408000303D41736B2020313D4C65740050312030
:104090004D6163726F2D4E72003320506172616DFD
:1040A000657465720041736B206F722053657420D4
:1040B000746865205374617475732066726F6D2027
:1040C000746865204D6163726F20746F2061207386
:1040D0007065636966696564204E756D6265722EF0
:1040E000003130205365742F41736B204D61637232
:1040F0006F5374617475732000503420204C434416
:104100002D4C696E6520302E2E3300503320204C0C
:1041100043442D582D506F736974696F6E0050328F
:1041200020202020546F2041647265737300503149
:10413000202046726F6D20416472657373003420D5
:10414000506172616D6574657200200030392050D5
:1041500072696E742054424C2041647265737365B9
:104160007320746F204C43440000005032202054D0
:104170006F20202041647265737300503120204607
:10418000726F6D20416472657373003220506172EA
:10419000616D657465720020003038205072696E60
:1041A000742054424C2041647265737365732074AB
:1041B0006F20554152540000005032204669656C12
:1041C000642D4E756D6265720050312053656374C5
:1041D000696F6E2D4E756D6265720032205061728E
:1041E000616D657465720020003037205072696E11
:1041F000742054424C2053656374696F6E7320744D
:104200006F2055415254002020203330302031326D
:10421000303020323430302034383030202E2E2EC2
:104220002031313532303000503320204241554466
:10423000524154450050322020323D2053657420B5
:1042400053657269616C2E42415544524154452078
:104250000050312020303D203F2053657269616C51
:104260002E424155445241544520200032202050D6
:104270006172616D657465720020003036204261A4
:1042800075647261746500000050322020313D4930
:104290004E5055542020323D494E5055545F505594
:1042A0004C4C55502020333D4F55545055540050E0
:1042B00031202050696E2D4E7200203220506172E4
:1042C000616D657465720073657473206120646547
:1042D00066696E65642050696E20746F204D4F448E
:1042E00045003035205365742050696E2D4D6F6444
:1042F0006500000050322020303D4C6F7720313D6A
:104300004869676820322E2E3235352050574D00CF
:104310005031202050696E2D4E72002032205061A5
:1043200072616D65746572007365747320612064D9
:104330006566696E65642050696E206469726563A4
:104340007420746F003034205365742050494E2D12
:104350004E720000000050312020303D495354205F
:10436000313D4F464620323D4F4E20332E2E505782
:104370004D00203120506172616D6574657200736B
:104380007769746368204F6E626F617264204C4578
:104390004420746F003033204F6E4264204C4544FB
:1043A0000000000050312020323D7265616C6C7954
:1043B00020656C73653D6E6F74207265616C6C79FD
:1043C00000203120506172616D6574657220666FE6
:1043D0007220736166657479007265626F6F742014
:1043E0007468652061726475696E6F206E6F770006
:1043F0003032207265626F6F74000000005031200F
:10440000303D4953542020313D4F46462020323D17
:104410004F4E00203120506172616D6574657200ED
:104420004C4344204261636B67726F756E64204C2D
:1044300069676874003031204C4344204261636BEB
:104440006C696768740050343A0050333A00503257
:104450003A0050313A006861732030205061726137
:104460006D6574657200656D70747920636F6D6D34
:10447000616E6420646F206E6F7468696E670030CF
:104480003020656D70747920636D64000000000059
:104490000000000000000000253034642D2530327B
:1044A000642D2530326420253032643A2530326460
:1044B0003A2530326400253034642D253032642DA5
:1044C0002530326420253032643A253032643A2572
:1044D00030326400646174653A253034642D2530CF
:1044E00032642D253032642074656D707320253060
:1044F00032643A253032643A253032640025303453
:10450000642D253032642D2530326420253032640C
:1045100000253034642D253032642D25303264205E
:10452000253032643A253032643A25303264004412
:104530006174756D3A253034642D253032642D2533
:10454000303264205A65697420253032643A25304F
:1045500032643A2530326400253034642D253032FF
:10456000642D2530326420253032643A253032649F
:1045700000253034642D253032642D2530326420FE
:10458000253032643A253032643A25303264006492
:104590006174653A253034642D253032642D253020
:1045A00032642074696D6520253032643A253032DA
:1045B000643A253032640000353600353500003568
:1045C00036003535000035360035350052657365E7
:1045D000727665646174656E2066616C6C73206EC2
:1045E0006F63682065747761732070726F204D6F00
:1045F00064756C2068696E7A756B6F6D6D740050B0
:10460000494E204E7220666F7220434C4B20206F23
:10461000662048583731310050494E204E7220668E
:104620006F7220444F5554206F66204858373131FF
:104630000057696567656D6F64756C20303320487D
:10464000583731312066C3BC72206EC3A4636873CF
:1046500074656E205A7765636B00576965676520DE
:104660004D6F64756C2030330057696567656D6FF9
:1046700064756C2030322048583731312066C3BC15
:1046800072206EC3A463687374656E205A77656385
:104690006B005769656765204D6F64756C2030321B
:1046A0000047657769636874736D6573736D6F64D4
:1046B000756C2030312066C3BC72202E2E2E004730
:1046C000657769636874736D6F64756C2030310051
:1046D00047657769636874736D6573736D6F64752F
:1046E0006C20426573636872656962756E67004726
:1046F000657769636874736D657373204D6F647556
:104700006C204E616D65005765696768746D6F64F4
:10471000756C202030332048583731310057656997
:10472000676874204D6F64756C203033005765697D
:104730006768746D6F64756C20203032204858377C
:10474000313100576569676874204D6F64756C205E
:104750003032005765696768746D6F64756C20202E
:104760003031204858373131005765696768742007
:104770004D6F64756C203031005765696768746DE2
:104780006F64756C732048583731312064657461EB
:10479000696C206465736372697074696F6E005729
:1047A0006569676874204D6F64756C65204E616D36
:1047B00065004D736733303A004D736732393A0004
:1047C0004D736732383A004D736732373A004D7394
:1047D0006732363A004D736732353A004D736732AF
:1047E000343A004D736732333A004D736732323AD0
:1047F000004D736732313A004D736733303A0057DA
:104800006161676520256C64206D6974206D6F6D32
:10481000656E74616E2065696E67657374656C6C36
:1048200074656D203F20766F6E20256C645B3F5D64
:10483000206175662065696E656E2057657274200B
:10484000766F6E20256C645B3F5D207374656C6CC5
:10485000656E20202020313D6A6120393D61626211
:1048600072656368656E0067657370656963686526
:1048700072740053706569636865726E2064657256
:10488000204B616C696272696572756E672066C3E0
:10489000BC7220576161676520256C642054617289
:1048A000613A256C642046616B743A256C64202063
:1048B00020313D4A6120393D6162627265636865FD
:1048C0006E00456E646520646572204B616C6962A0
:1048D00072696572756E6720766F6E2047657769BD
:1048E000636874736D6F64756C20256C642C206430
:1048F0006173205265666572656E7A676577696374
:104900006874206B616E6E20656E746665726E747D
:104910002077657264656E2E0053636872697474E3
:1049200020342076203420204B616C6962726965E6
:1049300072756E6720766F6E204D6F64756C2025E2
:104940006C64206D6974205265666572656E7A6765
:1049500065776963687420256C64206CC3A47566F0
:1049600074202E2E2E0053636872697474203320D5
:1049700076203420206C65676520646173204B616C
:104980006C696272696572756E6773676577696372
:10499000687420766F6E20256C645B675D2061759E
:1049A000662064696520576161676520256C642C09
:1049B0002064616E6E20313D6F6B2020393D416275
:1049C0006272656368656E0053636872697474200F
:1049D00032207620342020576161676520256C6481
:1049E000204B616C696272696572756E67204C65F7
:1049F00065727A757374616E64207769726420657C
:104A0000726D697474656C74202E2E005363687225
:104A100069747420312076203420205761616765E5
:104A200020256C642066726569206D616368656E1F
:104A30002020313D6F6B2020393D416262726563F9
:104A400068656E20005374617274204B616C6962FA
:104A500072696572756E672066C3BC7220476577A0
:104A600069636874736D6573736D6F64756C20250D
:104A70006C642065696E205265666572656E7A6742
:104A800065776963687420766F6E20256C645B6758
:104A90005D20776972642062656EC3B6746967745D
:104AA000206F64657220C3A46E64657265205061D6
:104AB00072616D6574657220380020256C64202E4B
:104AC0004878373131204D6F647569206D697420E5
:104AD00050696E20446F75743A256C6420756E645D
:104AE0002050696E20436C6B3A256C6420697374A6
:104AF000206E6F6368206E69636874206B616C69F7
:104B00006272696572742E20566F722056657277D4
:104B1000656E64756E67206D75C39F206461732038
:104B20004D6F64756C206B616C696272696572743B
:104B30002077657264656E2E0020256C64202E48F7
:104B400058373131204D6F64756C2050696E2044A8
:104B50006F75743A256C642050696E20436C6B3A13
:104B6000256C6420646566696E69657274004573BE
:104B70002077757264656E20256C64204858373143
:104B800031204D6F64756C6520696E697469616C64
:104B90006973696572742E00446173204858373117
:104BA00031204D6F64756C20697374207A757220A2
:104BB0005A656974206E6F6368206E69636874203B
:104BC0006B616C69627269657274004573207775F8
:104BD0007264656E20256C64204B6F6D62696E6136
:104BE00074696F6E656E20696E697469616C697352
:104BF000696572740045732077757264656E20254F
:104C00006C642041757367C3A46E676520696E6923
:104C10007469616C69736965727400457320777596
:104C20007264656E20256C642045696E67C3A46E4E
:104C3000676520696E697469616C6973696572740E
:104C400000756E62656B616E6E74004665686C65BA
:104C50007268616674657220417566727566207649
:104C60006F6E20436F6D62696E6174696F6E5F4431
:104C70004F20506172616D657465722043546F44BA
:104C80006F3A00536574757020616267657363687D
:104C90006C6F7373656E005374617475733A004D75
:104CA000616B726F2D4E756D6D65723A0042617564
:104CB00064726174653A004F6E626F617264204C79
:104CC000454420697374206765736368616C74651B
:104CD000743A004C434420697374206765736368B9
:104CE000616C746574207A753A0053707261636800
:104CF000652065696E67657374656C6C7420617599
:104D0000663A0046756E6B74696F6E656E207765E6
:104D10007264656E20696E206469657365722056E1
:104D2000657273696F6E206E696368742076657250
:104D300077656E6465742E20536965686520286305
:104D4000296F6D6D616E646F73005363686C696584
:104D50007373652053657269656C6C652053636875
:104D60006E6974747374656C6C6500616B747565E1
:104D70006C6C6520537072616368653A00616267AC
:104D80006562726F6368656E004D6C646720004DEC
:104D9000736734303A004D736733393A004D7367A7
:104DA00033383A004D736733373A004D7367333603
:104DB0003A004D736733353A004D736733343A0028
:104DC0004D736733333A004D736733323A004D7396
:104DD0006733313A004D736733303A00576569677E
:104DE000687420256C64207769746820546172614E
:104DF00020256C645B3F5D206174206D6F6D656E76
:104E0000742073657420746F20256C645B3F5D2093
:104E10002020202020202020313D79657320393D3D
:104E200063616E63656C00736176656400536176DF
:104E3000652043616C6962726174696F6E7265733B
:104E4000756C747320666F7220576569676874208B
:104E5000256C6420546172613A256C64204661635C
:104E6000746F723A256C64202020313D796573207F
:104E7000393D63616E63656C00456E642043616C0F
:104E80006962726174696F6E20666F72205765691E
:104E90006768742D4D6F64756C20256C642C2052EE
:104EA00065666572656E7A776569676874206361A7
:104EB0006E2074616B65206F66662E00537465709A
:104EC000203420662034202043616C696272617452
:104ED000696F6E20666F7220576569676874202558
:104EE0006C642077697468207265666572656E63AC
:104EF0006577656967687420256C64206973207222
:104F0000756E6E696E67202E2E2E005374657020AC
:104F100033206620342020676976652043616C6900
:104F200062726174696F6E77656967687420256C59
:104F3000645B675D20746F2057656967687420251E
:104F40006C642C207468656E202020313D6F6B20CE
:104F500020393D63616E63656C0053746570203267
:104F600020662034202057656967687420256C64AA
:104F70002043616C6962726174696F6E20656D7047
:104F8000747920536974756174696F6E2069732038
:104F900074616B656E202E2E2E0053746570203167
:104FA000206620342020656D70747920576569670C
:104FB00068742D4D6F64756C20256C64207072656B
:104FC00073732020313D6F6B2020393D63616E6328
:104FD000656C0053746172742043616C6962726124
:104FE00074696F6E20666F72205765696768742DEB
:104FF0004D6F64756C20256C642061205265666578
:1050000072656E63657765696768742066726F6D37
:1050100020256C64205B675D206973207265717563
:1050200069726564206F7220706C73206368616EB2
:10503000676520506172616D65746572203800206B
:10504000256C64202E4858373131204D6F64756CC3
:1050500020776974682050696E20446F75743A2512
:105060006C6420616E642050696E20436C6B3A253D
:105070006C64206973206E6F742063616C69627266
:10508000617465642E20506C656173652063616C8A
:10509000696272617465206265666F7265207573FE
:1050A000696E6720646174612E0020256C64202E77
:1050B0004858373131204D6F64756C2050696E202F
:1050C000446F75743A256C642050696E20436C6B94
:1050D0003A256C6420646566696E65640020256C01
:1050E00064204858373131204D6F64756C732069E6
:1050F0006E697469616C697A65640048583731314A
:10510000204D6F64756C206973206E6F742063612D
:105110006C696272617465642061742074686520D2
:105120006D6F6D656E740020256C6420436F6D6239
:10513000696E6174696F6E7320696E69746564204D
:10514000616E64207365740020256C64204F757453
:105150007075742050696E7320696E69746564207F
:10516000616E64207365740020256C6420496E7044
:1051700075742050696E7320696E6974656400757A
:105180006E6B6E6F776E0077726F6E672063616C07
:105190006C20436F6D62696E6174696F6E5F444F1E
:1051A00020506172616D657465722043546F446F65
:1051B0003A00536574757020446F6E6500537461D6
:1051C0007475733A004D6163726F2D4E756D626533
:1051D000723A0042415544524154453A004F6E6282
:1051E0006F6172642D4C656420697320736574204F
:1051F000746F3A004C434420495320534554205483
:105200004F3A004C616E6775616765205365742085
:10521000746F3A0046756E6374696F6E73206172C5
:1052200065206E6F74207573656420696E207468E4
:1052300069732056657273696F6E2C2073656520E3
:105240002863296F6D6D616E646F7300436C6F73BB
:10525000652053657269616C20506F7274004375EC
:105260007272656E744C616E67756167653A006352
:10527000616E63656C6564004D7367200046726102
:105280006E7AC3B67369736368004465757473633B
:105290006800456E676C69736368006672656E636B
:1052A00068006765726D616E00656E676C69736832
:1052B00000667200676500656E004C43444D4C32D9
:1052C0002076322E312E32002000322E300033690B
:1052D000742D636F6E74726F6C3A00446F6E65204C
:1052E000616C6C20506172616D65746572732073BE
:1052F000657420746F20466163746F727920446511
:105300006661756C747300537461727420616C6CA7
:1053100020506172616D65746572732073657420CD
:10532000746F20466163746F72792044656661759D
:105330006C747300204D446F3A0020564E723A0050
:105340002062696E2062656920496E69745F4D61F3
:105350006368696E657300496E68616C7420766F6E
:105360006E20427566666572313A00496E68616CFE
:105370007420766F6E20427566666572323A00411F
:1053800064723A002E20002073657420746F3A0016
:10539000506172616D657465723A003A2000626115
:1053A000636B20627574746F6E00616E7920627534
:1053B00074746F6E206F72207573650066756E630E
:1053C00074696F6E20707265737300546F20636C24
:1053D0006F73652074686973006D02610254024D39
:1053E000023B022C021D020F020002F101E001D873
:1053F00001D101C401BA01A901A20194018601767B
:105400000168015A01490139013201250118010AD7
:1054100001FC00EF00E400204669656C644E723ABE
:1054200000204E723A00206E6F74206465636C61D8
:10543000726564204F666673657420696E20466BE2
:105440007420545F496478206D697373696E6720B6
:10545000636173653A00B752B452B152A952A25275
:105460009B5292528A527D5278526F525E524C52E7
:1054700014520352F451DD51D351C551BD51B251B3
:1054800087517F51685148512751FB50DD50AA5038
:105490003F50D34F9A4F5A4F0B4FBC4E794E2D4E23
:1054A000274EDC4DD54DCE4DC74DC04DB94DB24DFB
:1054B000AB4DA44D9D4D964D8F4D894D7D4D6B4D02
:1054C0004A4D034DEA4CD34CB74CAD4C9F4C974CD6
:1054D000834C4B4C414C1B4CF54BCB4B984B6E4B80
:1054E000394BBA4A454A0C4AC84966491949C24823
:1054F00073486748FF47F847F147EA47E347DC4707
:10550000D547CE47C747C047B947B2479F477947B6
:105510006947534743472D471D470747EF46D04646
:10552000BF46A146924669465A4631461846FF454F
:10553000CC45C945C645C545C245BF45BE45BB4529
:10554000B845B7458F45714558452F451145FD4430
:10555000D444B64498449744964495449444934420
:105560009244914490448F448E448D448C447F44B3
:105570006644564452444E444A44464435442044CA
:105580001344FD43FC43FB43FA43F043D943C14377
:10559000A443A343A243A14395437F43724356438D
:1055A000554354435343454328431B431043F4425C
:1055B000F342F242E242C742BA42AF4289428842D3
:1055C00087427B4279426C4251423542284207422F
:1055D000E941E741DB41C941B941B841B74199418E
:1055E00097418B417B416B416A4169414C414A4142
:1055F0003E412E411E410B41F940E140A5409940FA
:105600008D407D40584057402E40FF3FF33FDE3FE6
:10561000C93FC83FC73FB63FB53FA93FA63FA33FDD
:10562000A23FA13F803F533F473F363F0C3F0B3FD8
:105630000A3FDB3EA93E9D3E8C3E513E503E4F3ED2
:10564000243EDD3DD13DBB3D723D713D703D5F3D32
:105650005D3D503D4D3D4A3D473D443D333D313D2F
:10566000243D213D1E3D1B3D183DEF3CC43CA13C6B
:10567000913C813C633C623C383C153CF33BDD3B58
:10568000BF3BBE3BBD3B923B6D3B413B2B3BFD3AA1
:10569000FC3AFB3AD13AAE3A8E3A7E3A603A5F3AF9
:1056A0005E3A333A0F3A033AB539B539B439B339BA
:1056B000AF39AD399D399A3997399439913989394A
:1056C00074396C3957394F393A3932391D391539EE
:1056D0000039F838E338DB38C638BE38A938A13885
:1056E0008C3884386E3866385038483832382A3822
:1056F00014380C38F637EE37D837D037BA37B237D8
:105700009C3794377E3776376037583742373A3789
:1057100024371C370637FE36E836E036CA36C2363E
:10572000AC36A4368E3686367036683652364A36F1
:1057300034362C3616360E36F835F035DA35D235A5
:10574000BC35B4359E3596358035783562355A3559
:1057500044353C3526351E3508350035EA34E2340B
:10576000CB34C334AC34A4348D3485346E346634D5
:105770004F3447343034283411340934F233EA33A7
:10578000D333CB33B433AC3395338D3376336E337D
:1057900057334F333833303319331133FA32F2324F
:1057A000DB32D332BC32B4329D3295327E32763225
:1057B0005F32573240323D32263223320C320932C8
:1057C000F231EF31D831D531BF31BC31A531A23101
:1057D0008B31883172316F31593156313F313C3123
:1057E000253122310B310831F130EE30D730D43051
:1057F000BD30BA30A330A030893086306F306C3085
:10580000553052303C30393022301F3008300530AE
:10581000EE2FEB2FD52FD22FBB2FB82FA12F9E2FDE
:10582000872F842F6D2F6A2F532F502F392F362F0C
:105830001F2F0B2FF72EE32ECF2EBB2EA72E932E2E
:105840007F2E6B2E572E432E2F2E1B2E072EF32D21
:10585000DF2DCB2DB62DA22D8E2D7A2D652D512D20
:105860003D2D372D312D2B2D252D1F2D192D132D90
:105870000D2D072D012DFB2CF52CEF2CE92CE32C05
:10588000DD2CD72CD12CCB2CC52CBF2CB92CB32C78
:10589000AD2CA62C9F2C982C912C8A2C832C7C2C04
:1058A000752C6E2C672C602C592C522C4B2C442CB4
:1058B0003D2C362C2F2C282C212C1A2C132C0C2C64
:1058C000052CFE2BF72BF02BE92BE22BDB2BD42B1B
:1058D000CD2BC62BBF2BB82BB12BAD2BA82BA32BBD
:1058E0009E2B992B932B8F2B892B842B7A2B762B0A
:1058F0006D2B682B5F2B5A2B4D2B472B412B3B2BB2
:10590000352B2E2B272B1F2B152B0C2B052BFC2A75
:10591000F42AED2AE42ADB2AD02AC82AC02ABC2A83
:10592000B82AB42AB02AAC2AA82AA42AA02A9C2AD7
:10593000982A942A902A8C2A882A7D2A752A6C2AE9
:10594000662A602A5C2A572A522A4B2A412A392A77
:10595000302A272A1D2A162A0E2A082A022AFE2958
:10596000F929F429ED29E329DB29D229C929C529F7
:10597000C129BD29B929B529B129AD29A929A52947
:10598000A1299D29992995298F298B29872983293F
:105990007F297B29772973296F296B296729632937
:1059A0005F294B2937292629E928DC28B628A3288E
:1059B000792867283C282C280728F727BF27AE27F7
:1059C0008E277B2753275227512750274F274E27B3
:1059D0004D274C274B274A27492748274727462743
:1059E0004527442743274227412740273F273E2773
:1059F0003D273C273B27272713270127C026B8260A
:105A0000872678263C262826F225E025A7259425FA
:105A1000572545251C250725BF24BE24BD24BC24AD
:105A2000BB24BA24B924B824B724B624B524B4249A
:105A3000B324B224B124B024AF24AE24AD24AC24CA
:105A4000AB24AA24A924A824A72493247F24712466
:105A500063245524472439242B242A242924282448
:105A600027242624252424242324222421242024FA
:105A70001F241E241D241C241B241A24192418242A
:105A8000172416241524142413241224112410245A
:105A90000F240E240D240C240B240A240924F8239B
:105AA000E723D623C523BF23BD23BB23B923B423B8
:105AB000B223B023AE23A823A623A423A2239C238E
:105AC0009A239823962390238E238C238A2384233E
:105AD000822380237E2378237623742372236E23EC
